:020000040800F2
:10000000008001205D23000891220008932200084F
:10001000952200089722000899220008000000009D
:100020000000000000000000000000009B2200080B
:100030009D220008000000009F220008A122000865
:10004000AD230008AD230008AD230008AD23000850
:10005000AD230008AD230008AD230008AD23000840
:10006000AD230008AD230008AD230008AD23000830
:10007000AD230008AD230008AD230008AD23000820
:10008000AD230008AD230008AD23000800000000E8
:10009000000000000000000000000000AD23000888
:1000A000AD230008AD230008AD230008AD230008F0
:1000B000AD230008A9220008AD230008AD230008E5
:1000C000AD230008AD230008AD230008AD230008D0
:1000D000AD230008B9220008C92200080000000072
:1000E000AD230008AD230008AD2300080000000088
:1000F000000000000000000000000000AD23000828
:1001000000000000AD230008AD230008AD23000867
:1001100000000000000000000000000000000000DF
:10012000AD230008AD230008AD230008AD2300086F
:10013000AD230008000000000000000000000000E7
:10014000000000000000000000000000AD230008D7
:10015000AD230008AD230008AD230008AD2300083F
:10016000AD230008AD2300080000000000000000DF
:10017000000000000000000000000000000000007F
:1001800000000000AD230008000000000000000097
:04019000AD23000893
:1001A00010B5054C237833B9044B13B10448AFF3B1
:1001B00000800123237010BD7000002000000000AB
:1001C0002C2C000808B5034B1BB103490348AFF3BF
:1001D000008008BD00000000740000202C2C0008E6
:1001E00053B94AB9002908BF00281CBF4FF0FF319E
:1001F0004FF0FF3000F072B9ADF1080C6DE904CE9C
:1002000000F006F8DDF804E0DDE9022304B07047F1
:100210002DE9F047089E04468846002B4BD18A42C0
:10022000154667D9B2FA82F24AB1C2F1200701FA43
:1002300002F320FA07F7954047EA030894404FEA93
:10024000154E230CB8FBFEF71FFA85FC0EFB178832
:1002500043EA084307FB0CF1994209D9EB1807F16F
:10026000FF3080F01B81994240F21881023F2B44FD
:100270005B1AA4B2B3FBFEF00EFB103344EA034456
:1002800000FB0CFCA44509D92C1900F1FF3380F0C8
:100290000781A44540F2048102382C4440EA07401B
:1002A000A4EB0C0400271EB1D4400023C6E9004390
:1002B0003946BDE8F0878B4209D9002E00F0EB806B
:1002C0000027C6E9000138463946BDE8F087B3FA91
:1002D00083F7002F47D18B4202D3824200F2FA808B
:1002E000841A61EB030301209846002EE0D0C6E992
:1002F0000048DDE702B9FFDEB2FA82F2002A40F0E0
:100300008F80491B4FEA154E1FFA85F80127B1FB74
:10031000FEFC230C0EFB1C1143EA014308FB0CF10D
:10032000994207D9EB180CF1FF3002D2994200F242
:10033000CD808446591AA3B2B1FBFEF00EFB101417
:1003400043EA044408FB00F8A04507D92C1900F142
:10035000FF3302D2A04500F2B6801846A4EB080491
:1003600040EA0C409FE7C7F1200CBB4022FA0CFE8C
:100370004EEA030E01FA07F420FA0CF521FA0CF309
:100380004FEA1E482543B3FBF8F92C0C08FB193340
:100390001FFA8EFA44EA034309FB0AF49C4202FA6C
:1003A00007F200FA07F10BD91EEB030309F1FF3046
:1003B00080F087809C4240F28480A9F10209734456
:1003C0001B1BADB2B3FBF8F008FB103345EA034446
:1003D00000FB0AFAA24508D91EEB040400F1FF3322
:1003E0006BD2A24569D90238744440EA0940A0FBA7
:1003F0000289A4EB0A044C45C2464B4654D351D063
:10040000002E69D0B1EB0A0564EB030404FA0CFC7E
:10041000FD40FC404CEA0505C6E90054002747E7CB
:10042000C2F1200320FA03F7954001FA02F021FA05
:1004300003F34FEA154E3843010CB3FBFEF71FFAE6
:1004400085F80EFB173341EA034107FB08F38B42A3
:1004500004FA02F407D9691807F1FF3C2FD28B4246
:100460002DD9023F2944CB1A81B2B3FBFEF00EFB1B
:10047000103341EA034100FB08F38B4207D96918A6
:1004800000F1FF3C17D28B4215D902382944C91A12
:1004900040EA07473BE73746304609E70746E7E6C5
:1004A0001846FBE64145ABD2B8EB020A69EB0E02F7
:1004B00001381346A4E76046E9E7184695E7674622
:1004C000D1E781467CE702382C4447E7ACF1020CC7
:1004D0002B442FE7384608E73746E9E6704700BF68
:1004E00001F0FF01102A2BDB10F0070F08D010F8E5
:1004F000013B013A8B422DD010F0070F42B3F6D1E9
:10050000F0B441EA012141EA014122F007047FF001
:1005100000070023F0E80256083C85EA010586EA58
:10052000010685FA47F5A3FA87F586FA47F6A5FA94
:1005300087F68EB9EED1F0BC01F0FF0102F00702A0
:1005400032B110F8013B013A83EA010313B1F8D14B
:100550000020704701387047002D06BF354603382C
:10056000073815F0010F07D1013015F4807F02BF65
:10057000013015F4C03F0130F0BC0138704700BFB6
:1005800010B504460E4B18784FF47A73B3FBF0F3B2
:100590000C4A1068B0FBF3F000F094F868B90F2C27
:1005A00001D901200AE0002221464FF0FF3000F07F
:1005B00049F8034B5C60002000E0012010BD00BF43
:1005C000000000200800002008B50B4B1A6842F418
:1005D00000721A601A6842F480621A601A6842F463
:1005E00080721A60032000F01BF80020FFF7C8FF9C
:1005F00001F072FD002008BD003C0240034A116872
:10060000034B1B780B441360704700BF9800002019
:1006100000000020014B1868704700BF98000020C0
:10062000074AD36823F4E0631B041B0C000200F4A8
:10063000E060184340F0BF6040F40030D060704785
:1006400000ED00E030B4174BDB68C3F30223C3F1C5
:100650000704042C28BF04241D1D062D18D9033BB4
:100660004FF0FF3505FA04F421EA0401994005FA38
:1006700003F322EA0303194300280BDB0901C9B283
:1006800000F1604000F5614080F8001330BC704715
:100690000023E5E700F00F000901C9B2024B19542D
:1006A000F4E700BF00ED00E014ED00E000F01F02F1
:1006B000400901239340024A42F82030704700BFAE
:1006C00000E100E00138B0F1807F0AD2064B5860AB
:1006D000064AF02182F823100020986007221A6051
:1006E00070470120704700BF10E000E000ED00E01F
:1006F00090F83530DBB2022B03D080234365012014
:100700007047052380F835300268136823F0010331
:10071000136000207047000000230F2B00F2C580FB
:10072000F0B482B039E0042200E00022B2403A4343
:1007300002345E4E46F824205D4A1468EA4302EA19
:1007400004064F6817F4803F01D045EA0406584C70
:100750002660646802EA04064F6817F4003F01D07F
:1007600045EA0406524C6660A46802EA04064F6833
:1007700017F4801F01D045EA04064D4CA660E468DA
:1007800022404E6816F4001F01D045EA0402484C8E
:10079000E26001330F2B00F2858001229A400C6841
:1007A00004EA0205AA42F4D14C68022C01D0122CB2
:1007B00010D1DE08083650F826C003F00704A70061
:1007C0000F24BC402CEA040C0C69BC4044EA0C0425
:1007D00040F8264004685F000326BE40F64306EA60
:1007E000040C4C6804F00304BC4044EA0C040460AC
:1007F0004C6804F1FF3CBCF1010F03D9112C01D06E
:10080000122C10D1846806EA040CCC68BC4044EA7F
:100810000C048460446824EA02024C68C4F30014A7
:100820009C4014434460C26816408A68BA40324310
:10083000C2604A6812F0805FABD0002201921D4A6C
:10084000546C44F480445464526C02F4804201922B
:10085000019A9C08A61C154A52F8267003F0030260
:1008600096000F22B24027EA0207134A90423FF453
:100870005CAF02F5806290420ED002F58062904239
:100880000CD002F5806290420AD002F5806290425C
:100890003FF449AF072249E7012247E7022245E733
:1008A000032243E702B0F0BC7047704700380140B4
:1008B000003C014000380240000002400369194238
:1008C00001D1002070470120704712B909048161ED
:1008D0007047816170470000002800F0BB8170B54F
:1008E00082B00446036813F0010F3BD0A74B9B680E
:1008F00003F00C03042B2CD0A44B9B6803F00C03D7
:10090000082B21D06368B3F5803F4FD0B3F5A02FFB
:1009100052D09E4B1A6822F480321A601A6822F470
:1009200080221A606368002B50D0FFF773FE0546E3
:10093000964B1B6813F4003F14D1FFF76BFE401B6E
:100940006428F5D903208AE1904B5B6813F4800F8B
:10095000D8D08E4B1B6813F4003F03D06368002B84
:1009600000F07A81236813F0020F55D0874B9B6803
:1009700013F00C0F3ED0854B9B6803F00C03082B43
:1009800033D0E368002B68D0814B01221A60FFF757
:1009900041FE05467D4B1B6813F0020F54D1FFF753
:1009A00039FE401B0228F5D9032058E1774A136825
:1009B00043F480331360B5E7744B1A6842F4802225
:1009C0001A601A6842F480321A60ABE7FFF722FE21
:1009D00005466E4B1B6813F4003FC3D0FFF71AFEA9
:1009E000401B6428F5D9032039E1684B5B6813F498
:1009F000800FC6D1654B1B6813F0020F04D0E3686B
:100A0000012B01D001202AE1604A136823F0F8038A
:100A1000216943EAC1031360236813F0080F40D033
:100A2000636963B35B4B01221A60FFF7F3FD054670
:100A3000564B5B6F13F0020F33D1FFF7EBFD401BFA
:100A40000228F5D903200AE1504A136823F0F8037D
:100A5000216943EAC1031360DEE74D4B00221A60AF
:100A6000FFF7D8FD0546494B1B6813F0020FD3D0A2
:100A7000FFF7D0FD401B0228F5D90320EFE0454BDE
:100A800000221A60FFF7C6FD0546404B5B6F13F06E
:100A9000020F06D0FFF7BEFD401B0228F5D9032048
:100AA000DDE0236813F0040F79D0384B1B6C13F092
:100AB000805F33D100230193344B1A6C42F0805293
:100AC0001A641B6C03F080530193019B0125324B88
:100AD0001B6813F4807F23D0A368012B34D0052B2F
:100AE00038D02A4B1A6F22F001021A671A6F22F0CF
:100AF00004021A67A368002B36D0FFF78BFD064669
:100B0000224B1B6F13F0020F48D1FFF783FD801BB0
:100B100041F288339842F3D90320A0E00025D6E7BC
:100B20001D4A136843F480731360FFF773FD064694
:100B3000194B1B6813F4807FCED1FFF76BFD801B30
:100B40000228F5D903208AE0104A136F43F001030D
:100B50001367CFE70D4B1A6F42F004021A671A6F42
:100B600042F001021A67C5E7FFF754FD0646074B3E
:100B70001B6F13F0020F11D0FFF74CFD801B41F2E9
:100B800088339842F3D9032069E000BF003802405F
:100B900000004742800E474200700040E5B9A3695B
:100BA000002B5BD0304A926802F00C02082A58D021
:100BB000022B17D02D4B00221A60FFF72BFD0446A5
:100BC000294B1B6813F0007F42D0FFF723FD001B69
:100BD0000228F5D9032042E0234A136C23F0805306
:100BE0001364DCE7214B00221A60FFF713FD054672
:100BF0001D4B1B6813F0007F06D0FFF70BFD401B59
:100C00000228F5D903202AE0E369226A1343626AC5
:100C100043EA8213A26A5208013A43EA0243E26AB3
:100C200043EA0263104A5360104B01221A60FFF737
:100C3000F1FC04460C4B1B6813F0007F06D1FFF754
:100C4000E9FC001B0228F5D9032008E0002006E09B
:100C5000002004E001207047012000E0002002B0E5
:100C600070BD0120FBE700BF003802406000474232
:100C7000324B9B6803F00C03042B5CD0082B01D093
:100C80002F4870472DE9F04B2C4B5A6802F03F0279
:100C90005B6813F4800F2BD0284B5B68C3F3881379
:100CA0001E4600275C010025E41A65EB0705A90133
:100CB00041EA9461A001001B61EB0501CB0043EA0E
:100CC0005073C400A01943EB07014B0243EAD05311
:100CD0004402204619460023FFF782FA174B5B684F
:100CE000C3F3014301335B00B0FBF3F0BDE8F08BCD
:100CF000124B5B68C3F388131E4600275C01002576
:100D0000E41A65EB0705A90141EA9461A001001B03
:100D100061EB0501CB0043EA5073C400A01943EB1B
:100D200007018B0243EA90538402204619460023B0
:100D3000FFF756FAD2E70348704700BF0038024079
:100D40000024F40000127A00002800F09D8070B5A5
:100D500004464F4B1B6803F00F038B4209D2CBB202
:100D60004B4A1370136803F00F038B4201D001202C
:100D700070BD236813F0020F17D013F0040F04D0D6
:100D8000444A936843F4E0539360236813F0080FD8
:100D900004D0404A936843F4604393603D4A9368AB
:100DA00023F0F003A068034393600D46236813F01B
:100DB000010F32D06368012B21D09A1E012A25D958
:100DC000344A126812F0020F60D032498A6822F069
:100DD000030213438B60FFF71DFC06462D4B9B68F7
:100DE00003F00C036268B3EB820F16D0FFF712FC1E
:100DF000801B41F288339842F0D90320B8E7254A96
:100E0000126812F4003FE0D10120B1E7214A1268D4
:100E100012F0007FD9D10120AAE71D4B1B6803F017
:100E20000F03AB4209D9EAB2194B1A701B6803F0E1
:100E30000F03AB4201D001209AE7236813F0040F9F
:100E400006D0144A936823F4E053E1680B4393609F
:100E5000236813F0080F07D00E4A936823F4604309
:100E6000216943EAC1039360FFF702FF094B9B68C6
:100E7000C3F30313084AD35CD840084B1860002022
:100E8000FFF77EFB002073E70120704701206FE72A
:100E9000003C024000380240442C000808000020BA
:100EA000014B1868704700BF0800002008B5FFF725
:100EB000F7FF044B9B68C3F38223034AD35CD840FB
:100EC00008BD00BF00380240542C000808B5FFF7E9
:100ED000E7FF044B9B68C3F34233034AD35CD8401B
:100EE00008BD00BF00380240542C000870B4036AEB
:100EF00023F001030362036A4268846924F07304E7
:100F00000D6845EA040623F002048B6823430B4D69
:100F1000A84206D0426086614A684263036270BCA0
:100F2000704723F00803CC68234323F0040322F422
:100F300040724C6914438A692243EBE70000014088
:100F400030B4036A23F480730362036A4268C4699D
:100F500024F073040D682C4323F400738D6843EA76
:100F600005230D4DA84206D04260C4614A68C263A1
:100F7000036230BC704723F40063CD6843EA052365
:100F800023F4806322F440524D6942EA05128D69D0
:100F900042EA0512E8E700BF0000014030B4036AEE
:100FA00023F480530362036A4468C26922F4E64270
:100FB0000D6842EA052223F400538D6843EA0533A5
:100FC000074DA84206D04460C2614A6802640362C9
:100FD00030BC704724F480444D6944EA8514F2E73C
:100FE0000000014010B4036A046A24F001040462A2
:100FF000846924F0F00444EA021223F00A030B434C
:10100000826103625DF8044B704710B4036A23F0F9
:10101000100303628469036A24F4704444EA0232D0
:1010200023F0A00343EA0113826103625DF8044BDD
:101030007047836823F0700341F007011943816012
:10104000704710B4846824F47F4442EA03230B43BE
:10105000234383605DF8044B70470268D36843F014
:101060000103D3600268136843F00103136000209A
:101070007047704790F83830012B7DD010B504468A
:10108000012380F83830022380F8393002689368F1
:1010900023F47F4323F0770393600B68402B57D0F2
:1010A00010D9702B3ED01FD8502B47D0602B32D197
:1010B000CA6849680068FFF7A8FF60212068FFF749
:1010C000B8FF28E0102B4DD008D9202B4FD0302B63
:1010D00021D130210068FFF7ACFF1CE0DBB9002113
:1010E0000068FFF7A6FF16E0B3F5805F0ED0B3F5FA
:1010F000005F10D1CB684A6889680068FFF7A1FFDC
:101100002268936843F48043936004E00268936824
:1011100023F007039360012384F83930002084F81A
:10112000380010BDCB684A6889680068FFF789FFFE
:101130002268936843F077039360ECE7CA684968D4
:101140000068FFF74FFF50212068FFF772FFE2E7CA
:10115000CA6849680068FFF745FF40212068FFF72B
:1011600068FFD8E710210068FFF763FFD3E720216D
:101170000068FFF75EFFCEE70220704770477047B8
:10118000704710B5044603681A6912F0020F11D0B7
:10119000DA6812F0020F0DD06FF002021A6101231B
:1011A000037603689B6913F0030F70D0FFF7E6FF27
:1011B0000023237623681A6912F0040F12D0DA682C
:1011C00012F0040F0ED06FF004021A61022323768E
:1011D00023689B6913F4407F5FD02046FFF7CEFF62
:1011E0000023237623681A6912F0080F12D0DA68F8
:1011F00012F0080F0ED06FF008021A610423237654
:101200002368DB6913F0030F4ED02046FFF7B6FFCB
:101210000023237623681A6912F0100F12D0DA68BF
:1012200012F0100F0ED06FF010021A61082323760F
:101230002368DB6913F4407F3DD02046FFF79EFF13
:101240000023237623681A6912F0010F03D0DA68AD
:1012500012F0010F36D123681A6912F0800F03D003
:10126000DA6812F0800F34D123681A6912F0400F47
:1012700003D0DA6812F0400F32D123681A6912F0F5
:10128000200F03D0DA6812F0200F30D110BD01F02A
:1012900057F82046FFF773FF8AE7204601F050F821
:1012A0002046FFF76CFF9BE7204601F049F82046F7
:1012B000FFF765FFACE7204601F042F82046FFF754
:1012C0005EFFBDE76FF001021A61204601F02AF8C7
:1012D000C1E76FF080021A61204600F05BF9C3E7B6
:1012E0006FF040021A612046FFF74AFFC5E76FF032
:1012F00020021A61204600F04CF9C7E70368234A30
:1013000090420ED0B0F1804F0BD0A2F57C429042BB
:1013100007D002F58062904203D002F580629042CD
:1013200003D123F070034A681343184A90421AD03D
:10133000B0F1804F17D0A2F57C42904213D002F555
:10134000806290420FD002F5806290420BD002F58D
:101350009A32904207D002F58062904203D002F5A3
:101360008062904203D123F44073CA681343036040
:101370008B68C3620B688362044B984202D00123DE
:10138000436170470B690363F9E700BF0000014048
:10139000A8B110B5044690F839305BB1022384F847
:1013A0003930211D2068FFF7A9FF012384F8393067
:1013B000002010BD80F8383000F0AEFEEEE70120CE
:1013C0007047A8B110B5044690F839305BB10223DC
:1013D00084F83930211D2068FFF790FF012384F83D
:1013E0003930002010BD80F83830FFF742FEEEE7BC
:1013F0000120704730B4036A23F010030362036ACC
:101400004468826922F4E6420D6842EA052223F02C
:1014100020038D6843EA05130C4DA84206D04460B2
:1014200082614A688263036230BC704723F08003A4
:10143000CD6843EA051323F0400324F440644D696A
:1014400044EA85048D6944EA8504E8E70000014028
:1014500090F83830012B28D010B50446012380F8CD
:101460003830022380F839300C2A0BD8DFE802F03C
:10147000070A0A0A110A0A0A150A0A0A1900006864
:10148000FFF734FD012384F83930002084F8380058
:1014900010BD0068FFF7AEFFF4E70068FFF750FDEE
:1014A000F0E70068FFF77AFDECE70220704710B420
:1014B000012303FA01F4036A23EA04030362036AC3
:1014C0008A40134303625DF8044B704710B504462D
:1014D0000C290DD8DFE801F0070C0C0C1B0C0C0CD0
:1014E000210C0C0C27000268D36843F00203D36080
:1014F00001222068FFF7DBFF2368104A934218D0CF
:101500002268136843F001031360002010BD0268D5
:10151000D36843F00403D360EAE70268D36843F07A
:101520000803D360E4E70268D36843F01003D36094
:10153000DEE75A6C42F400425A64E1E700000140E1
:1015400090F83830012B22D030B4012280F83820B6
:10155000022380F839300468636823F07003636005
:10156000046863680D682B4363600468A36823F014
:101570008003A3600468A36849680B43A36080F8F4
:101580003920002380F83830184630BC70470220DC
:101590007047704770470268D36823F49073D36034
:1015A0000268536923F001035361202380F83A3025
:1015B000704790F83930DBB2212B2AD18368B3F51C
:1015C000805F16D0036A5A1C02621A7803685A6058
:1015D000C38C013B9BB2C384EBB90268D36823F090
:1015E0008003D3600268D36843F04003D3600020D7
:1015F0007047036A1B880268C3F3080353600369DA
:101600001BB9036A02330362E2E7036A0133036230
:10161000DEE7022070470020704700002DE9F84304
:10162000044601680A6922F44052C36813430B61FF
:101630000168CA6822F4164222F00C02836800692D
:10164000034360690343E06903431343CB602168AC
:101650004A6922F44072A36913434B61E369B3F50D
:10166000004F60D02368B84A934200F0148102F51D
:101670008062934200F00F81FFF718FC00EB8000BE
:1016800000EB80006568AD00B0FBF5F5AF4FA7FB40
:1016900005356D092E01FFF709FC00EB800000EB1A
:1016A00080006568AD00B0FBF5F9FFF7FFFB00EBCC
:1016B000800000EB80006568AD00B0FBF5F5A7FB8E
:1016C00005356D094FF0640808FB15952D0132357D
:1016D000A7FB05356D0905F0F0053544FFF7E6FB7E
:1016E00000EB800000EB80006668B600B0FBF6F609
:1016F000FFF7DCFB00EB800000EB800063689B00E1
:10170000B0FBF3F0A7FB0030400908FB10684FEA7C
:10171000081808F13208A7FB0837C7F343172368F6
:101720002F449F600DE12368874A93425BD002F506
:101730008062934257D0FFF7B9FB00EB800000EBCB
:10174000800065686D00B0FBF5F5804FA7FB05359F
:101750006D092E01FFF7AAFB00EB800000EB800073
:1017600065686D00B0FBF5F9FFF7A0FB00EB8000AA
:1017700000EB800065686D00B0FBF5F5A7FB053553
:101780006D094FF0640808FB1595ED003235A7FB95
:1017900005356D096D0005F4F8753544FFF786FBD6
:1017A00000EB800000EB800066687600B0FBF6F688
:1017B000FFF77CFB00EB800000EB800063685B00C0
:1017C000B0FBF3F3A7FB03235B0908FB13684FEAA5
:1017D000C80808F13208A7FB0837C7F34217236887
:1017E0002F449F60ADE0FFF771FB00EB800000EB42
:1017F000800065686D00B0FBF5F5544FA7FB05351B
:101800006D092E01FFF762FB00EB800000EB80000A
:1018100065686D00B0FBF5F9FFF758FB00EB800041
:1018200000EB800065686D00B0FBF5F5A7FB0535A2
:101830006D094FF0640808FB1595ED003235A7FBE4
:1018400005356D096D0005F4F8753544FFF73EFB6D
:1018500000EB800000EB800066687600B0FBF6F6D7
:10186000FFF734FB00EB800000EB800063685B0057
:10187000B0FBF3F3A7FB03235B0908FB13684FEAF4
:10188000C80808F13208A7FB0837C7F342172368D6
:101890002F449F6055E0FFF719FB00EB800000EB41
:1018A00080006568AD00B0FBF5F5284FA7FB053556
:1018B0006D092E01FFF70AFB00EB800000EB8000B2
:1018C0006568AD00B0FBF5F9FFF700FB00EB8000A9
:1018D00000EB80006568AD00B0FBF5F5A7FB0535B2
:1018E0006D094FF0640808FB15952D013235A7FBF3
:1018F00005356D0905F0F0053544FFF7E7FA00EB13
:10190000800000EB80006668B600B0FBF6F6FFF7DB
:10191000DDFA00EB800000EB800063689B00B0FB09
:10192000F3F0A7FB0030400908FB10684FEA0818E5
:1019300008F13208A7FB0837C7F3431723682F4481
:101940009F60BDE8F88300BF001001401F85EB5188
:101950002DE9F04105460F4616469846069C2B6831
:101960001B6837EA03030CBF01230023B3421DD1D8
:10197000B4F1FF3FF3D02CB1FEF74CFEA0EB080012
:10198000A042ECD92A68D36823F4D073D3602A68C4
:10199000536923F001035361202385F8393085F81A
:1019A0003A30002385F83830032000E00020BDE8FD
:1019B000F08158B310B5044690F839300BB32423A6
:1019C00084F839302268D36823F40053D36020466A
:1019D000FFF724FE2268136923F490431361226801
:1019E000536923F02A0353612268D36843F40053F8
:1019F000D3600020E063202384F8393084F83A3043
:101A000010BD80F8383000F0D3FBD8E701207047D4
:101A10002DE9F04182B01E4690F83930DBB2202B20
:101A200055D104460D469046002955D0002A55D080
:101A300090F83830012B53D0012380F83830002340
:101A4000C363212380F83930FEF7E4FD0746A4F88C
:101A50002480A4F8268010E000963B4600228021D6
:101A60002046FFF775FF00283CD12B882268C3F37E
:101A7000080353602369C3B90235E38C9BB2B3B149
:101A8000E38C013B9BB2E384A368B3F5805FE3D0B2
:101A900000963B46002280212046FFF759FF18BBE5
:101AA0002A7823685A600135E7E70135E5E70096B3
:101AB0003B46002240212046FFF74AFF0346A8B9D3
:101AC000202284F83920002284F8382000E0022304
:101AD000184602B0BDE8F0810123F9E70123F7E7DA
:101AE0000223F5E70323F3E70323F1E70323EFE7FB
:101AF0002DE9F04182B01E4690F83A30DBB2202B3F
:101B00005AD104460D469046002959D0002A59D092
:101B100090F83830012B57D0012380F8383000235B
:101B2000C363222380F83A30FEF774FD0746A4F819
:101B30002C80A4F82E801DE000963B460022202138
:101B40002046FFF705FF002840D1236933B92368F9
:101B50005B68C3F3080325F8023B0BE023685B686E
:101B6000DBB225F8013B05E023685B6803F07F03E7
:101B70002B700135E38D9BB2BBB1E38D013B9BB272
:101B8000E385A368B3F5805FD6D000963B4600227C
:101B900020212046FFF7DCFED0B92369002BE3D1DA
:101BA00023685B682B700135E4E7202384F83A3022
:101BB000002084F8380000E0022002B0BDE8F08187
:101BC0000120FAE70120F8E70220F6E70320F4E716
:101BD0000320F2E7704708B50168CB6823F04003A3
:101BE000CB60202380F83930FFF7F4FF002008BDD8
:101BF000704708B590F83A30DBB2222B40D18368A9
:101C0000B3F5805F0ED0036903BB03685A68836A2B
:101C1000591C81621A70C38D013B9BB2C385F3B11D
:101C200000202EE0826A036943B903685B68C3F34E
:101C300008031380836A02338362ECE703685B68FE
:101C4000DBB21380836A01338362E4E703685B6875
:101C5000826A511C816203F07F031370DBE7026824
:101C6000D36823F49073D3600268536923F00103AF
:101C70005361202380F83A30FFF7BAFF002000E0DC
:101C8000022008BD7047000010B5044602681368C2
:101C9000D168526913F00F0005D113F0200F02D064
:101CA00011F0200F53D1002867D012F0010202D1A9
:101CB00011F4907F61D013F0010F06D011F4807FF2
:101CC00003D0E06B40F00100E06313F0040F04D098
:101CD0001AB1E06B40F00200E06313F0020F04D091
:101CE0001AB1E06B40F00400E06313F0080F04D079
:101CF0001AB1E26B42F00802E263E26B002A48D0BC
:101D000013F0200F02D011F0200F24D123685B695B
:101D100003F04003E26B12F0080F00D13BB3204602
:101D2000FFF739FC23685A6912F0400F1BD05A693B
:101D300022F040025A61636B8BB11A4A1A65606BDC
:101D4000FEF7D6FC28B3606B036D984721E0204670
:101D5000FFF74FFF1DE02046FFF74BFFD6E7204679
:101D6000FFF790FF15E02046FFF78CFF11E02046BB
:101D7000FFF788FF0023E3630BE013F0800F02D02E
:101D800011F0800F06D113F0400F02D011F0400F78
:101D900004D110BD2046FFF70CFCFAE72046FFF700
:101DA0001AFFF6E7A91D000808B5806B0023C3855C
:101DB000C384FFF767FF08BD30B58BB000240594DE
:101DC00006940794089409940194224B1A6B42F0EC
:101DD00004021A631A6B02F004020192019A02943F
:101DE0001A6B42F080021A631A6B02F080020292B0
:101DF000029A03941A6B42F001021A631A6B02F002
:101E000001020392039A04941A6B42F002021A63CD
:101E10001B6B03F002030493049B0F4D2246202109
:101E20002846FEF752FD4FF4005305930B4B0693E3
:101E3000079405A90A48FEF76FFC202305930123A8
:101E400006930794089405A92846FEF765FC0BB095
:101E500030BD00BF003802400000024000002110E9
:101E60000008024008B50848084B03604FF4E1330E
:101E7000436000238360C36003610C22426183617D
:101E8000C361FFF796FD08BD20010020004400401B
:101E900008B50848084B03604FF4E1334360002362
:101EA0008360C36003610C2242618361C361FFF7F9
:101EB00080FD08BDD80000200010014030B58FB073
:101EC00000240A940B940C940D94089409940194A2
:101ED000029403940494059406940794154D164BAC
:101EE0002B6043F67F636B60AC604FF6FF73EB6073
:101EF0002C612846FFF74CFA4FF480530A930AA945
:101F00002846FFF7B7F82846FFF75BFA08940994CC
:101F100008A92846FFF714FB019402940394059442
:101F2000224601A92846FFF793FA284600F014F943
:101F30000FB030BD9C0000200004004010B594B0EC
:101F40003022002108A800F057FA002403940494DA
:101F50000594069407940194174B1A6C42F0805232
:101F60001A641B6C03F080530193019B0294134A83
:101F7000136823F4404343F400431360136803F4ED
:101F800040430293029B0223089301230B931023E7
:101F90000C930E9408A8FEF79FFC0F230393049460
:101FA00005944FF4805306930794214603A8FEF747
:101FB000CBFE14B010BD00BF0038024000700040DE
:101FC00030B585B0FEF700FBFFF7B8FFFFF7F4FE72
:101FD000FFF748FFFFF772FFFFF75AFF364C204626
:101FE000FFF73BF800212046FFF770FA17E0334B6C
:101FF0001B68002B58D1304B1B685A6A121B304BA0
:102000001B68C3EB03431A442E4901A800F0FCF9F6
:102010004FF0FF33052201A92B48FFF7F9FC264BAF
:102020001A68D36823F00203D3604FF0FF33032212
:1020300003A92548FFF75CFD0023214A13601F4ACE
:1020400013609DF80E40A4F130059DF80C304C2B28
:10205000E5D19DF80D30202BE1D1012DDFD82021D5
:102060001A48FEF72BFCA842D9D0EAB22021174823
:10207000FEF72BFC104B1B685C6A6FF002021A61C2
:1020800004F57F42FF325A63DA6842F00202DA60F6
:102090004FF400510E48FEF711FC0128A7D1074B61
:1020A0001B68002BF4D0A2E74FF0FF33052209494B
:1020B0000548FFF7ADFCB2E79C00002018010020A6
:1020C0001C0100205C2C00082001002000000240C0
:1020D00000080240642C000800B583B00021009184
:1020E0000C4B5A6C42F480425A645A6C02F480429F
:1020F0000092009A01911A6C42F080521A641B6C93
:1021000003F080530193019B0720FEF789FA03B087
:102110005DF804FB0038024002680E4B9A4200D082
:10212000704700B583B00021019103F50D331A6C9F
:1021300042F002021A641B6C03F002030193019B3C
:102140000A461D20FEF77EFA1D20FEF7AFFA03B007
:102150005DF804FB0004004000B587B00023019344
:10216000029303930493059302680E4B9A4202D0A4
:1021700007B05DF804FB002300930B4B1A6B42F091
:1021800001021A631B6B03F001030093009B4023C1
:10219000019302230293059301A90448FEF7BCFAB8
:1021A000E6E700BF000400400038024000000240A3
:1021B00010B58AB0002305930693079308930993FB
:1021C00003682F4A934204D02E4A93422FD00AB07C
:1021D00010BD002401942C4B5A6C42F010025A643A
:1021E0005A6C02F010020192019A02941A6B42F0AA
:1021F00001021A631B6B03F001030293029B4FF46D
:10220000C0630593022306930123079303230893D6
:102210000723099305A91D48FEF77EFA22462146A9
:102220002520FEF70FFA2520FEF740FACFE700241D
:102230000394154B1A6C42F400321A641A6C02F4BF
:1022400000320392039A04941A6B42F001021A635B
:102250001B6B03F001030493049B0C2305930223DF
:1022600006930723099305A90848FEF755FA224665
:1022700021462620FEF7E6F92620FEF717FAA6E704
:1022800000100140004400400038024000000240BD
:102290007047FEE7FEE7FEE7FEE7704770477047CE
:1022A00008B5FEF7ABF908BD08B50248FEF769FFAF
:1022B00008BD00BF9C00002008B50248FFF7E4FC01
:1022C00008BD00BFD800002008B50248FFF7DCFCBD
:1022D00008BD00BF200100200F49D1F8883043F429
:1022E0007003C1F888300D4B1A6842F001021A6081
:1022F000002098601A6822F0847222F480321A60FA
:10230000074A5A601A6822F480221A60D8604FF097
:1023100000638B60704700BF00ED00E000380240B2
:10232000103000240268044B9A4200D07047034AE0
:10233000136801331360F9E7000400401C0100201A
:102340000268044B9A4200D07047034B01221A6086
:10235000FAE700BF0004004018010020DFF834D085
:10236000002103E00C4B5B58435004310B480C4BED
:1023700042189A42F6D30B4A02E0002342F8043B8B
:10238000094B9A42F9D3FFF7A7FF00F011F8FFF7C6
:1023900017FE704700800120B02C000800000020CC
:1023A000700000207000002064010020FEE70000A3
:1023B00070B50D4E0D4CA41BA4100025A54209D1EB
:1023C0000B4E0C4C00F032FCA41BA4100025A542BF
:1023D00005D170BD56F8253098470135EEE756F81F
:1023E000253098470135F2E7A82C0008A82C0008F2
:1023F000A82C0008AC2C000802440346934200D1EC
:10240000704703F8011BF9E70EB400B59CB01DAB93
:10241000029006906FF00041094807910491094924
:1024200053F8042B05910068019302A900F066F8A7
:10243000029B00221A701CB05DF804EB03B07047D9
:102440000C0000200802FFFF2DE9F0478E689E4235
:1024500082460C469046994637D88A8912F4906F86
:1024600031D0256809696F1A6569022305EB4505B6
:1024700095FBF3F509F101033B449D4238BF1D462E
:10248000530530D5294600F029FB064650B90C23E8
:10249000CAF80030A38943F04003A3814FF0FF3016
:1024A000BDE8F0873A46216900F0A6FAA38923F433
:1024B000906343F08003A381266165613E44ED1B78
:1024C0002660A5604E464E4500D94E4632464146EE
:1024D000206800F09CFAA3689B1BA36023681E443D
:1024E00026600020DCE72A4600F052FB0646002862
:1024F000E2D12169504600F0A3FAC8E72DE9F04F78
:102500009DB0804603938B891D060C4616460FD559
:102510000B696BB9402100F0E1FA2060206128B915
:102520000C23C8F800304FF0FF30C7E04023636150
:102530000023099320238DF8293030238DF82A3089
:102540004FF0010B37463D4615F8013B0BB1252BEB
:102550003ED1B7EB060A0BD05346324621464046E1
:10256000FFF772FF013000F0A480099B53440993E8
:102570003B78002B00F09D8000234FF0FF32CDE927
:102580000523049307938DF853301A932F460522A1
:1025900017F8011B4F48FDF7A3FF049BD0B9D906DC
:1025A00044BF20228DF853201A0744BF2B228DF8F8
:1025B00053202A782A2A15D0079A2F4600200A2568
:1025C000394611F8013B303B092B4DD9B8B10FE02A
:1025D0002F46B8E73F4A801A0BFA00F018430490E0
:1025E0003D46D3E7039A111D12680391002A01DBCF
:1025F000079204E0524243F00203079204933B78AF
:102600002E2B0CD17B782A2B33D1039B1A1D1B68F0
:102610000392002BB8BF4FF0FF33023705932E4DC6
:10262000397803222846FDF75BFF38B14023401B71
:1026300003FA00F0049B03430137049339782748D9
:102640008DF8281006227E1CFDF74AFF002838D09E
:10265000234B13BB039B073323F007030833039378
:10266000099B4B4409936DE705FB023201200F469D
:10267000A6E700230137059319460A25384610F8C6
:10268000012B303A092A03D9002BC8D00591C6E79F
:1026900005FB012101230746F0E703AB0093224627
:1026A000104B04A94046AFF30080B0F1FF3F8146D4
:1026B000D6D1A3895B063FF536AF09981DB0BDE8BA
:1026C000F08F03AB00932246064B04A9404600F06E
:1026D00081F8EAE76C2C0008722C0008762C0008C0
:1026E00000000000492400082DE9F04791461F46EC
:1026F0008A680B69DDF820809342B8BF1346C9F899
:10270000003091F8432006460C4612B10133C9F857
:1027100000302368990642BFD9F800300233C9F867
:102720000030256815F0060507D104F1190AE368A1
:10273000D9F800209B1AAB4228DC94F84330226879
:10274000003318BF012392062DD404F14302394609
:102750003046C047013020D02368E568D9F8002012
:1027600003F00603042B08BFAD1AA36822690CBF4F
:1027700025EAE57500259342C4BF9B1AED184FF07A
:1027800000091A344D451AD1002008E001235246B1
:1027900039463046C047013003D14FF0FF30BDE825
:1027A000F0870135C3E7E1185A1C302081F8430057
:1027B000224494F8451082F843100233C5E7012300
:1027C000224639463046C0470130E6D009F10109BA
:1027D000D8E700002DE9F04301F1430C0C46097ED7
:1027E00085B06E291746064698460C9A00F0B380CD
:1027F00022D8632936D00AD8002900F0B980582998
:1028000000F0838004F1420584F8421032E064292C
:1028100001D06929F6D120681368050603F1040187
:102820002AD51B681160002B03DA2D225B4284F845
:1028300043206F480A2239E0732900F09D8008D8B0
:102840006F2920D07029DDD1236843F02003236055
:1028500003E0752917D07829D4D1782384F845303E
:10286000644855E01368191D1B68116004F14205A6
:1028700084F8423001238CE01B68116010F0400F97
:1028800018BF1BB2CFE713682568181D1060280613
:1028900001D51B6802E06806FBD51B8854486F29E8
:1028A00014BF0A220822002184F843106568A5603D
:1028B000002DC0F29580216821F004012160002BD9
:1028C0003DD1002D40F08E806546082A0BD123684B
:1028D000DB0708D5236962689A42DEBF302305F81A
:1028E000013C05F1FF35ACEB05032361CDF8008019
:1028F0003B4603AA21463046FFF7F6FE01304DD194
:102900004FF0FF3005B0BDE8F083394884F845103A
:10291000136821681D1D1B6815600A060BD5CA07C0
:1029200044BF41F0200121601BB9226822F020023F
:1029300022601022B7E74D0648BF9BB2EFE765461D
:10294000B3FBF2F102FB1133C35C05F8013D0B460A
:102950000029F5D1B9E7136825686169181D106071
:1029600028061B6801D5196002E06A06FBD51980AC
:10297000002323616546B9E71368191D11601D68BE
:10298000626800212846FDF7ABFD08B1401B60607E
:1029900063682361002384F84330A7E723692A464C
:1029A00039463046C0470130AAD023689B0713D46C
:1029B000E068039B9842B8BF1846A3E701234A4644
:1029C00039463046C04701309AD00135E368039A52
:1029D0009B1AAB42F2DCEBE7002504F11909F5E79D
:1029E000002BACD1037884F8423004F142056CE747
:1029F0007D2C00088E2C000810B5431E0A4491421D
:102A000000D110BD11F8014B03F8014FF7E78842E0
:102A100010B501EB020307D8421E99420AD011F803
:102A2000014B02F8014FF8E78342F5D98118D21A19
:102A3000D34200D110BD13F8014D01F8014DF7E765
:102A400038B50546002945D051F8043C0C1F002B31
:102A5000B8BFE41800F0D2F81F4A1368104633B923
:102A6000636014602846BDE8384000F0C8B8A3424F
:102A70000CD921686218934204BF1A685B686360CE
:102A800004BF521822600460ECE713465A680AB18A
:102A9000A242FAD919685818A0420BD12068014403
:102AA000581882421960DDD1106852685A6001449A
:102AB0001960D7E702D90C232B60D3E720682118CF
:102AC0008A4204BF11685268626004BF091821601D
:102AD0005C60C7E738BD00BF8C00002070B5CD1C1E
:102AE00025F0030508350C2D38BF0C25002D0646B2
:102AF00001DBA94203D90C233360002070BD00F034
:102B00007DF8214A1468214691B9204C23681BB9ED
:102B1000304600F063F820602946304600F05EF849
:102B2000431C24D10C233360304600F068F8E4E7FE
:102B30000B685B1B18D40B2B0FD90B60CD50CC1836
:102B4000304600F05CF804F10B00231D20F0070074
:102B5000C31AD3D05A42E250D0E78C424B6816BF1A
:102B6000636013600C46EBE70C464968CCE7C41C75
:102B700024F00304A04205D0211A304600F02EF8BC
:102B80000130CFD02560DBE78C00002090000020D2
:102B9000F8B5074614460E4621B91146BDE8F8407F
:102BA000FFF79CBF22B9FFF74BFF25462846F8BD2B
:102BB00000F026F8A0420FD221463846FFF78EFFDC
:102BC00005460028F2D031462246FFF715FF314670
:102BD0003846FFF735FFE9E73546E7E738B5064CF5
:102BE000002305460846236000F012F8431C02D17A
:102BF000236803B12B6038BD600100207047704727
:102C000051F8043C181F002BBCBF0B58C01870476C
:102C1000044A05491368002B08BF0B46184410608E
:102C2000184670479400002068010020F8B500BFE6
:102C3000F8BC08BC9E467047F8B500BFF8BC08BC9D
:042C40009E467047F5
:102C44000000000000000000010203040607080958
:102C54000000000001020304542530347800000011
:102C64005466666666000000232D302B2000686CD5
:102C74004C0065666745464700303132333435369B
:102C840037383941424344454600303132333435D4
:0C2C940036373839616263646566000001
:082CA00070D5FF7F0100000068
:042CA800C50100085A
:042CAC00A10100087A
:102CB00001000000100000000024F40010000020BB
:102CC0000000000000000000000000000000000004
:102CD00000000000000000000000000000000000F4
:102CE00000000000000000000000000000000000E4
:102CF00000000000000000000000000000000000D4
:102D000000000000000000000000000000000000C3
:102D100000000000000000000000000000000000B3
:040000050800235D6F
:00000001FF
